{
  "contractName": "NFTT",
  "abi": [
    {
      "anonymous": false,
      "inputs": [
        {
          "indexed": true,
          "internalType": "address",
          "name": "owner",
          "type": "address"
        },
        {
          "indexed": true,
          "internalType": "address",
          "name": "approved",
          "type": "address"
        },
        {
          "indexed": true,
          "internalType": "uint256",
          "name": "tokenId",
          "type": "uint256"
        }
      ],
      "name": "Approval",
      "type": "event"
    },
    {
      "anonymous": false,
      "inputs": [
        {
          "indexed": true,
          "internalType": "address",
          "name": "owner",
          "type": "address"
        },
        {
          "indexed": true,
          "internalType": "address",
          "name": "operator",
          "type": "address"
        },
        {
          "indexed": false,
          "internalType": "bool",
          "name": "approved",
          "type": "bool"
        }
      ],
      "name": "ApprovalForAll",
      "type": "event"
    },
    {
      "anonymous": false,
      "inputs": [
        {
          "indexed": true,
          "internalType": "address",
          "name": "previousOwner",
          "type": "address"
        },
        {
          "indexed": true,
          "internalType": "address",
          "name": "newOwner",
          "type": "address"
        }
      ],
      "name": "OwnershipTransferred",
      "type": "event"
    },
    {
      "anonymous": false,
      "inputs": [
        {
          "indexed": true,
          "internalType": "address",
          "name": "from",
          "type": "address"
        },
        {
          "indexed": true,
          "internalType": "address",
          "name": "to",
          "type": "address"
        },
        {
          "indexed": true,
          "internalType": "uint256",
          "name": "tokenId",
          "type": "uint256"
        }
      ],
      "name": "Transfer",
      "type": "event"
    },
    {
      "inputs": [
        {
          "internalType": "address",
          "name": "to",
          "type": "address"
        },
        {
          "internalType": "uint256",
          "name": "tokenId",
          "type": "uint256"
        }
      ],
      "name": "approve",
      "outputs": [],
      "stateMutability": "nonpayable",
      "type": "function"
    },
    {
      "inputs": [
        {
          "internalType": "address",
          "name": "owner",
          "type": "address"
        }
      ],
      "name": "balanceOf",
      "outputs": [
        {
          "internalType": "uint256",
          "name": "",
          "type": "uint256"
        }
      ],
      "stateMutability": "view",
      "type": "function",
      "constant": true
    },
    {
      "inputs": [
        {
          "internalType": "uint256",
          "name": "tokenId",
          "type": "uint256"
        }
      ],
      "name": "getApproved",
      "outputs": [
        {
          "internalType": "address",
          "name": "",
          "type": "address"
        }
      ],
      "stateMutability": "view",
      "type": "function",
      "constant": true
    },
    {
      "inputs": [
        {
          "internalType": "address",
          "name": "owner",
          "type": "address"
        },
        {
          "internalType": "address",
          "name": "operator",
          "type": "address"
        }
      ],
      "name": "isApprovedForAll",
      "outputs": [
        {
          "internalType": "bool",
          "name": "",
          "type": "bool"
        }
      ],
      "stateMutability": "view",
      "type": "function",
      "constant": true
    },
    {
      "inputs": [],
      "name": "name",
      "outputs": [
        {
          "internalType": "string",
          "name": "",
          "type": "string"
        }
      ],
      "stateMutability": "view",
      "type": "function",
      "constant": true
    },
    {
      "inputs": [],
      "name": "owner",
      "outputs": [
        {
          "internalType": "address",
          "name": "",
          "type": "address"
        }
      ],
      "stateMutability": "view",
      "type": "function",
      "constant": true
    },
    {
      "inputs": [
        {
          "internalType": "uint256",
          "name": "tokenId",
          "type": "uint256"
        }
      ],
      "name": "ownerOf",
      "outputs": [
        {
          "internalType": "address",
          "name": "",
          "type": "address"
        }
      ],
      "stateMutability": "view",
      "type": "function",
      "constant": true
    },
    {
      "inputs": [],
      "name": "renounceOwnership",
      "outputs": [],
      "stateMutability": "nonpayable",
      "type": "function"
    },
    {
      "inputs": [
        {
          "internalType": "address",
          "name": "from",
          "type": "address"
        },
        {
          "internalType": "address",
          "name": "to",
          "type": "address"
        },
        {
          "internalType": "uint256",
          "name": "tokenId",
          "type": "uint256"
        }
      ],
      "name": "safeTransferFrom",
      "outputs": [],
      "stateMutability": "nonpayable",
      "type": "function"
    },
    {
      "inputs": [
        {
          "internalType": "address",
          "name": "from",
          "type": "address"
        },
        {
          "internalType": "address",
          "name": "to",
          "type": "address"
        },
        {
          "internalType": "uint256",
          "name": "tokenId",
          "type": "uint256"
        },
        {
          "internalType": "bytes",
          "name": "_data",
          "type": "bytes"
        }
      ],
      "name": "safeTransferFrom",
      "outputs": [],
      "stateMutability": "nonpayable",
      "type": "function"
    },
    {
      "inputs": [
        {
          "internalType": "address",
          "name": "operator",
          "type": "address"
        },
        {
          "internalType": "bool",
          "name": "approved",
          "type": "bool"
        }
      ],
      "name": "setApprovalForAll",
      "outputs": [],
      "stateMutability": "nonpayable",
      "type": "function"
    },
    {
      "inputs": [
        {
          "internalType": "bytes4",
          "name": "interfaceId",
          "type": "bytes4"
        }
      ],
      "name": "supportsInterface",
      "outputs": [
        {
          "internalType": "bool",
          "name": "",
          "type": "bool"
        }
      ],
      "stateMutability": "view",
      "type": "function",
      "constant": true
    },
    {
      "inputs": [],
      "name": "symbol",
      "outputs": [
        {
          "internalType": "string",
          "name": "",
          "type": "string"
        }
      ],
      "stateMutability": "view",
      "type": "function",
      "constant": true
    },
    {
      "inputs": [
        {
          "internalType": "uint256",
          "name": "tokenId",
          "type": "uint256"
        }
      ],
      "name": "tokenURI",
      "outputs": [
        {
          "internalType": "string",
          "name": "",
          "type": "string"
        }
      ],
      "stateMutability": "view",
      "type": "function",
      "constant": true
    },
    {
      "inputs": [
        {
          "internalType": "address",
          "name": "from",
          "type": "address"
        },
        {
          "internalType": "address",
          "name": "to",
          "type": "address"
        },
        {
          "internalType": "uint256",
          "name": "tokenId",
          "type": "uint256"
        }
      ],
      "name": "transferFrom",
      "outputs": [],
      "stateMutability": "nonpayable",
      "type": "function"
    },
    {
      "inputs": [
        {
          "internalType": "address",
          "name": "newOwner",
          "type": "address"
        }
      ],
      "name": "transferOwnership",
      "outputs": [],
      "stateMutability": "nonpayable",
      "type": "function"
    },
    {
      "inputs": [],
      "name": "initialize",
      "outputs": [],
      "stateMutability": "nonpayable",
      "type": "function"
    },
    {
      "inputs": [
        {
          "internalType": "string",
          "name": "_newBaseURI",
          "type": "string"
        }
      ],
      "name": "setBaseURI",
      "outputs": [],
      "stateMutability": "nonpayable",
      "type": "function"
    },
    {
      "inputs": [],
      "name": "getAllOnSale",
      "outputs": [
        {
          "components": [
            {
              "internalType": "uint256",
              "name": "id",
              "type": "uint256"
            },
            {
              "internalType": "uint256",
              "name": "price",
              "type": "uint256"
            },
            {
              "internalType": "string",
              "name": "name",
              "type": "string"
            },
            {
              "internalType": "string",
              "name": "uri",
              "type": "string"
            },
            {
              "internalType": "bool",
              "name": "sale",
              "type": "bool"
            }
          ],
          "internalType": "struct NFTT.TokenMeta[]",
          "name": "",
          "type": "tuple[]"
        }
      ],
      "stateMutability": "view",
      "type": "function",
      "constant": true
    },
    {
      "inputs": [
        {
          "internalType": "uint256",
          "name": "_tokenId",
          "type": "uint256"
        },
        {
          "internalType": "bool",
          "name": "_sale",
          "type": "bool"
        },
        {
          "internalType": "uint256",
          "name": "_price",
          "type": "uint256"
        }
      ],
      "name": "setTokenSale",
      "outputs": [],
      "stateMutability": "nonpayable",
      "type": "function"
    },
    {
      "inputs": [
        {
          "internalType": "uint256",
          "name": "_tokenId",
          "type": "uint256"
        },
        {
          "internalType": "uint256",
          "name": "_price",
          "type": "uint256"
        }
      ],
      "name": "setTokenPrice",
      "outputs": [],
      "stateMutability": "nonpayable",
      "type": "function"
    },
    {
      "inputs": [
        {
          "internalType": "uint256",
          "name": "tokenId",
          "type": "uint256"
        }
      ],
      "name": "tokenPrice",
      "outputs": [
        {
          "internalType": "uint256",
          "name": "",
          "type": "uint256"
        }
      ],
      "stateMutability": "view",
      "type": "function",
      "constant": true
    },
    {
      "inputs": [
        {
          "internalType": "uint256",
          "name": "_tokenId",
          "type": "uint256"
        }
      ],
      "name": "tokenMeta",
      "outputs": [
        {
          "components": [
            {
              "internalType": "uint256",
              "name": "id",
              "type": "uint256"
            },
            {
              "internalType": "uint256",
              "name": "price",
              "type": "uint256"
            },
            {
              "internalType": "string",
              "name": "name",
              "type": "string"
            },
            {
              "internalType": "string",
              "name": "uri",
              "type": "string"
            },
            {
              "internalType": "bool",
              "name": "sale",
              "type": "bool"
            }
          ],
          "internalType": "struct NFTT.TokenMeta",
          "name": "",
          "type": "tuple"
        }
      ],
      "stateMutability": "view",
      "type": "function",
      "constant": true
    },
    {
      "inputs": [
        {
          "internalType": "uint256",
          "name": "_tokenId",
          "type": "uint256"
        }
      ],
      "name": "purchaseToken",
      "outputs": [],
      "stateMutability": "payable",
      "type": "function",
      "payable": true
    },
    {
      "inputs": [
        {
          "internalType": "address",
          "name": "_owner",
          "type": "address"
        },
        {
          "internalType": "string",
          "name": "_tokenURI",
          "type": "string"
        },
        {
          "internalType": "string",
          "name": "_name",
          "type": "string"
        },
        {
          "internalType": "uint256",
          "name": "_price",
          "type": "uint256"
        },
        {
          "internalType": "bool",
          "name": "_sale",
          "type": "bool"
        }
      ],
      "name": "mintCollectable",
      "outputs": [
        {
          "internalType": "uint256",
          "name": "",
          "type": "uint256"
        }
      ],
      "stateMutability": "nonpayable",
      "type": "function"
    }
  ],
  "bytecode": "0x608060405234801561001057600080fd5b50614a0a806100206000396000f3fe6080604052600436106101665760003560e01c8063715018a6116100d1578063b88d4fde1161008a578063d4ddce8a11610064578063d4ddce8a1461052b578063e985e9c514610568578063eb685c47146105a5578063f2fde38b146105ce57610166565b8063b88d4fde146104a9578063c2db2c42146104d2578063c87b56dd146104ee57610166565b8063715018a6146103d15780638129fc1c146103e85780638da5cb5b146103ff578063908945591461042a57806395d89b4114610455578063a22cb4651461048057610166565b806339b444361161012357806339b444361461029f57806342842e0e146102dc57806355f804b3146103055780636352211e1461032e5780636387ede61461036b57806370a082311461039457610166565b806301ffc9a71461016b57806306fdde03146101a8578063081812fc146101d3578063095ea7b3146102105780630ae7a3101461023957806323b872dd14610276575b600080fd5b34801561017757600080fd5b50610192600480360381019061018d91906134b1565b6105f7565b60405161019f9190613c2e565b60405180910390f35b3480156101b457600080fd5b506101bd6106d9565b6040516101ca9190613c49565b60405180910390f35b3480156101df57600080fd5b506101fa60048036038101906101f59190613544565b61076b565b6040516102079190613ba5565b60405180910390f35b34801561021c57600080fd5b5061023760048036038101906102329190613475565b6107f0565b005b34801561024557600080fd5b50610260600480360381019061025b9190613544565b610908565b60405161026d9190613f0b565b60405180910390f35b34801561028257600080fd5b5061029d600480360381019061029891906132c8565b610a9a565b005b3480156102ab57600080fd5b506102c660048036038101906102c191906133ce565b610afa565b6040516102d39190613f2d565b60405180910390f35b3480156102e857600080fd5b5061030360048036038101906102fe91906132c8565b610bec565b005b34801561031157600080fd5b5061032c60048036038101906103279190613503565b610c0c565b005b34801561033a57600080fd5b5061035560048036038101906103509190613544565b610ca2565b6040516103629190613ba5565b60405180910390f35b34801561037757600080fd5b50610392600480360381019061038d919061356d565b610d54565b005b3480156103a057600080fd5b506103bb60048036038101906103b69190613263565b610e2d565b6040516103c89190613f2d565b60405180910390f35b3480156103dd57600080fd5b506103e6610ee5565b005b3480156103f457600080fd5b506103fd611022565b005b34801561040b57600080fd5b506104146111a0565b6040516104219190613ba5565b60405180910390f35b34801561043657600080fd5b5061043f6111ca565b60405161044c9190613c0c565b60405180910390f35b34801561046157600080fd5b5061046a611488565b6040516104779190613c49565b60405180910390f35b34801561048c57600080fd5b506104a760048036038101906104a29190613392565b61151a565b005b3480156104b557600080fd5b506104d060048036038101906104cb9190613317565b61169b565b005b6104ec60048036038101906104e79190613544565b6116fd565b005b3480156104fa57600080fd5b5061051560048036038101906105109190613544565b61188d565b6040516105229190613c49565b60405180910390f35b34801561053757600080fd5b50610552600480360381019061054d9190613544565b611934565b60405161055f9190613f2d565b60405180910390f35b34801561057457600080fd5b5061058f600480360381019061058a919061328c565b61199c565b60405161059c9190613c2e565b60405180910390f35b3480156105b157600080fd5b506105cc60048036038101906105c791906135bc565b611a30565b005b3480156105da57600080fd5b506105f560048036038101906105f09190613263565b611ade565b005b60007f80ac58cd000000000000000000000000000000000000000000000000000000007bffffffffffffffffffffffffffffffffffffffffffffffffffffffff1916827bffffffffffffffffffffffffffffffffffffffffffffffffffffffff191614806106c257507f5b5e139f000000000000000000000000000000000000000000000000000000007bffffffffffffffffffffffffffffffffffffffffffffffffffffffff1916827bffffffffffffffffffffffffffffffffffffffffffffffffffffffff1916145b806106d257506106d182611c8a565b5b9050919050565b6060606580546106e8906141cd565b80601f0160208091040260200160405190810160405280929190818152602001828054610714906141cd565b80156107615780601f1061073657610100808354040283529160200191610761565b820191906000526020600020905b81548152906001019060200180831161074457829003601f168201915b5050505050905090565b600061077682611cf4565b6107b5576040517f08c379a00000000000000000000000000000000000000000000000000000000081526004016107ac90613deb565b60405180910390fd5b6069600083815260200190815260200160002060009054906101000a900473ffffffffffffffffffffffffffffffffffffffff169050919050565b60006107fb82610ca2565b90508073ffffffffffffffffffffffffffffffffffffffff168373ffffffffffffffffffffffffffffffffffffffff16141561086c576040517f08c379a000000000000000000000000000000000000000000000000000000000815260040161086390613e8b565b60405180910390fd5b8073ffffffffffffffffffffffffffffffffffffffff1661088b611d60565b73ffffffffffffffffffffffffffffffffffffffff1614806108ba57506108b9816108b4611d60565b61199c565b5b6108f9576040517f08c379a00000000000000000000000000000000000000000000000000000000081526004016108f090613d2b565b60405180910390fd5b6109038383611d68565b505050565b610910613056565b61091982611cf4565b61092257600080fd5b60fc60008381526020019081526020016000206040518060a00160405290816000820154815260200160018201548152602001600282018054610964906141cd565b80601f0160208091040260200160405190810160405280929190818152602001828054610990906141cd565b80156109dd5780601f106109b2576101008083540402835291602001916109dd565b820191906000526020600020905b8154815290600101906020018083116109c057829003601f168201915b505050505081526020016003820180546109f6906141cd565b80601f0160208091040260200160405190810160405280929190818152602001828054610a22906141cd565b8015610a6f5780601f10610a4457610100808354040283529160200191610a6f565b820191906000526020600020905b815481529060010190602001808311610a5257829003601f168201915b505050505081526020016004820160009054906101000a900460ff1615151515815250509050919050565b610aab610aa5611d60565b82611e21565b610aea576040517f08c379a0000000000000000000000000000000000000000000000000000000008152600401610ae190613eab565b60405180910390fd5b610af5838383611eff565b505050565b6000610b04611d60565b73ffffffffffffffffffffffffffffffffffffffff16610b226111a0565b73ffffffffffffffffffffffffffffffffffffffff1614610b78576040517f08c379a0000000000000000000000000000000000000000000000000000000008152600401610b6f90613e0b565b60405180910390fd5b60008311610b8557600080fd5b610b8f60fb61215b565b6000610b9b60fb612171565b9050610ba7878261217f565b60006040518060a001604052808381526020018681526020018781526020018881526020018515158152509050610bde828261234d565b819250505095945050505050565b610c078383836040518060200160405280600081525061169b565b505050565b610c14611d60565b73ffffffffffffffffffffffffffffffffffffffff16610c326111a0565b73ffffffffffffffffffffffffffffffffffffffff1614610c88576040517f08c379a0000000000000000000000000000000000000000000000000000000008152600401610c7f90613e0b565b60405180910390fd5b8060fd9080519060200190610c9e929190613087565b5050565b6000806067600084815260200190815260200160002060009054906101000a900473ffffffffffffffffffffffffffffffffffffffff169050600073ffffffffffffffffffffffffffffffffffffffff168173ffffffffffffffffffffffffffffffffffffffff161415610d4b576040517f08c379a0000000000000000000000000000000000000000000000000000000008152600401610d4290613d6b565b60405180910390fd5b80915050919050565b610d5d83611cf4565b610d9c576040517f08c379a0000000000000000000000000000000000000000000000000000000008152600401610d9390613ecb565b60405180910390fd5b60008111610da957600080fd5b610db1611d60565b73ffffffffffffffffffffffffffffffffffffffff16610dd084610ca2565b73ffffffffffffffffffffffffffffffffffffffff1614610df057600080fd5b8160fc600085815260200190815260200160002060040160006101000a81548160ff021916908315150217905550610e288382611a30565b505050565b60008073ffffffffffffffffffffffffffffffffffffffff168273ffffffffffffffffffffffffffffffffffffffff161415610e9e576040517f08c379a0000000000000000000000000000000000000000000000000000000008152600401610e9590613d4b565b60405180910390fd5b606860008373ffffffffffffffffffffffffffffffffffffffff1673ffffffffffffffffffffffffffffffffffffffff168152602001908152602001600020549050919050565b610eed611d60565b73ffffffffffffffffffffffffffffffffffffffff16610f0b6111a0565b73ffffffffffffffffffffffffffffffffffffffff1614610f61576040517f08c379a0000000000000000000000000000000000000000000000000000000008152600401610f5890613e0b565b60405180910390fd5b600073ffffffffffffffffffffffffffffffffffffffff16609760009054906101000a900473ffffffffffffffffffffffffffffffffffffffff1673ffffffffffffffffffffffffffffffffffffffff167f8be0079c531659141344cd1fd0a4f28419497f9722a3daafe3b4186f6b6457e060405160405180910390a36000609760006101000a81548173ffffffffffffffffffffffffffffffffffffffff021916908373ffffffffffffffffffffffffffffffffffffffff160217905550565b600060019054906101000a900460ff1680611048575060008054906101000a900460ff16155b611087576040517f08c379a000000000000000000000000000000000000000000000000000000000815260040161107e90613d8b565b60405180910390fd5b60008060019054906101000a900460ff1615905080156110d7576001600060016101000a81548160ff02191690831515021790555060016000806101000a81548160ff0219169083151502179055505b6110df61242f565b6110e7612518565b61115b6040518060400160405280600481526020017f4e465454000000000000000000000000000000000000000000000000000000008152506040518060400160405280600481526020017f4e465454000000000000000000000000000000000000000000000000000000008152506125f9565b61117c60405180608001604052806044815260200161499160449139610c0c565b801561119d5760008060016101000a81548160ff0219169083151502179055505b50565b6000609760009054906101000a900473ffffffffffffffffffffffffffffffffffffffff16905090565b606060006111d860fb612171565b67ffffffffffffffff811115611217577f4e487b7100000000000000000000000000000000000000000000000000000000600052604160045260246000fd5b60405190808252806020026020018201604052801561125057816020015b61123d613056565b8152602001906001900390816112355790505b509050600080600190505b600161126760fb612171565b611271919061405c565b81101561147f576001151560fc600083815260200190815260200160002060040160009054906101000a900460ff161515141561146c5760fc60008281526020019081526020016000206040518060a001604052908160008201548152602001600182015481526020016002820180546112ea906141cd565b80601f0160208091040260200160405190810160405280929190818152602001828054611316906141cd565b80156113635780601f1061133857610100808354040283529160200191611363565b820191906000526020600020905b81548152906001019060200180831161134657829003601f168201915b5050505050815260200160038201805461137c906141cd565b80601f01602080910402602001604051908101604052809291908181526020018280546113a8906141cd565b80156113f55780601f106113ca576101008083540402835291602001916113f5565b820191906000526020600020905b8154815290600101906020018083116113d857829003601f168201915b505050505081526020016004820160009054906101000a900460ff161515151581525050838381518110611452577f4e487b7100000000000000000000000000000000000000000000000000000000600052603260045260246000fd5b6020026020010181905250818061146890614230565b9250505b808061147790614230565b91505061125b565b50819250505090565b606060668054611497906141cd565b80601f01602080910402602001604051908101604052809291908181526020018280546114c3906141cd565b80156115105780601f106114e557610100808354040283529160200191611510565b820191906000526020600020905b8154815290600101906020018083116114f357829003601f168201915b5050505050905090565b611522611d60565b73ffffffffffffffffffffffffffffffffffffffff168273ffffffffffffffffffffffffffffffffffffffff161415611590576040517f08c379a000000000000000000000000000000000000000000000000000000000815260040161158790613ceb565b60405180910390fd5b80606a600061159d611d60565b73ffffffffffffffffffffffffffffffffffffffff1673ffffffffffffffffffffffffffffffffffffffff16815260200190815260200160002060008473ffffffffffffffffffffffffffffffffffffffff1673ffffffffffffffffffffffffffffffffffffffff16815260200190815260200160002060006101000a81548160ff0219169083151502179055508173ffffffffffffffffffffffffffffffffffffffff1661164a611d60565b73ffffffffffffffffffffffffffffffffffffffff167f17307eab39ab6107e8899845ad3d59bd9653f200f220920489ca2b5937696c318360405161168f9190613c2e565b60405180910390a35050565b6116ac6116a6611d60565b83611e21565b6116eb576040517f08c379a00000000000000000000000000000000000000000000000000000000081526004016116e290613eab565b60405180910390fd5b6116f7848484846126ee565b50505050565b600260c9541415611743576040517f08c379a000000000000000000000000000000000000000000000000000000000815260040161173a90613eeb565b60405180910390fd5b600260c981905550600073ffffffffffffffffffffffffffffffffffffffff163373ffffffffffffffffffffffffffffffffffffffff16141580156117bc575061178c81610ca2565b73ffffffffffffffffffffffffffffffffffffffff163373ffffffffffffffffffffffffffffffffffffffff1614155b6117c557600080fd5b60fc6000828152602001908152602001600020600101543410156117e857600080fd5b60006117f382610ca2565b90508073ffffffffffffffffffffffffffffffffffffffff166108fc349081150290604051600060405180830381858888f1935050505015801561183b573d6000803e3d6000fd5b5061184781600161151a565b611852813384611eff565b600060fc600084815260200190815260200160002060040160006101000a81548160ff02191690831515021790555050600160c98190555050565b606061189882611cf4565b6118d7576040517f08c379a00000000000000000000000000000000000000000000000000000000081526004016118ce90613e6b565b60405180910390fd5b60006118e161274a565b90506000815111611901576040518060200160405280600081525061192c565b8061190b846127dc565b60405160200161191c929190613b81565b6040516020818303038152906040525b915050919050565b600061193f82611cf4565b61197e576040517f08c379a000000000000000000000000000000000000000000000000000000000815260040161197590613dab565b60405180910390fd5b60fc6000838152602001908152602001600020600101549050919050565b6000606a60008473ffffffffffffffffffffffffffffffffffffffff1673ffffffffffffffffffffffffffffffffffffffff16815260200190815260200160002060008373ffffffffffffffffffffffffffffffffffffffff1673ffffffffffffffffffffffffffffffffffffffff16815260200190815260200160002060009054906101000a900460ff16905092915050565b611a3982611cf4565b611a78576040517f08c379a0000000000000000000000000000000000000000000000000000000008152600401611a6f90613e2b565b60405180910390fd5b611a80611d60565b73ffffffffffffffffffffffffffffffffffffffff16611a9f83610ca2565b73ffffffffffffffffffffffffffffffffffffffff1614611abf57600080fd5b8060fc6000848152602001908152602001600020600101819055505050565b611ae6611d60565b73ffffffffffffffffffffffffffffffffffffffff16611b046111a0565b73ffffffffffffffffffffffffffffffffffffffff1614611b5a576040517f08c379a0000000000000000000000000000000000000000000000000000000008152600401611b5190613e0b565b60405180910390fd5b600073ffffffffffffffffffffffffffffffffffffffff168173ffffffffffffffffffffffffffffffffffffffff161415611bca576040517f08c379a0000000000000000000000000000000000000000000000000000000008152600401611bc190613c8b565b60405180910390fd5b8073ffffffffffffffffffffffffffffffffffffffff16609760009054906101000a900473ffffffffffffffffffffffffffffffffffffffff1673ffffffffffffffffffffffffffffffffffffffff167f8be0079c531659141344cd1fd0a4f28419497f9722a3daafe3b4186f6b6457e060405160405180910390a380609760006101000a81548173ffffffffffffffffffffffffffffffffffffffff021916908373ffffffffffffffffffffffffffffffffffffffff16021790555050565b60007f01ffc9a7000000000000000000000000000000000000000000000000000000007bffffffffffffffffffffffffffffffffffffffffffffffffffffffff1916827bffffffffffffffffffffffffffffffffffffffffffffffffffffffff1916149050919050565b60008073ffffffffffffffffffffffffffffffffffffffff166067600084815260200190815260200160002060009054906101000a900473ffffffffffffffffffffffffffffffffffffffff1673ffffffffffffffffffffffffffffffffffffffff1614159050919050565b600033905090565b816069600083815260200190815260200160002060006101000a81548173ffffffffffffffffffffffffffffffffffffffff021916908373ffffffffffffffffffffffffffffffffffffffff160217905550808273ffffffffffffffffffffffffffffffffffffffff16611ddb83610ca2565b73ffffffffffffffffffffffffffffffffffffffff167f8c5be1e5ebec7d5bd14f71427d1e84f3dd0314c0f7b2291e5b200ac8c7c3b92560405160405180910390a45050565b6000611e2c82611cf4565b611e6b576040517f08c379a0000000000000000000000000000000000000000000000000000000008152600401611e6290613d0b565b60405180910390fd5b6000611e7683610ca2565b90508073ffffffffffffffffffffffffffffffffffffffff168473ffffffffffffffffffffffffffffffffffffffff161480611ee557508373ffffffffffffffffffffffffffffffffffffffff16611ecd8461076b565b73ffffffffffffffffffffffffffffffffffffffff16145b80611ef65750611ef5818561199c565b5b91505092915050565b8273ffffffffffffffffffffffffffffffffffffffff16611f1f82610ca2565b73ffffffffffffffffffffffffffffffffffffffff1614611f75576040517f08c379a0000000000000000000000000000000000000000000000000000000008152600401611f6c90613e4b565b60405180910390fd5b600073ffffffffffffffffffffffffffffffffffffffff168273ffffffffffffffffffffffffffffffffffffffff161415611fe5576040517f08c379a0000000000000000000000000000000000000000000000000000000008152600401611fdc90613ccb565b60405180910390fd5b611ff0838383612989565b611ffb600082611d68565b6001606860008573ffffffffffffffffffffffffffffffffffffffff1673ffffffffffffffffffffffffffffffffffffffff168152602001908152602001600020600082825461204b91906140e3565b925050819055506001606860008473ffffffffffffffffffffffffffffffffffffffff1673ffffffffffffffffffffffffffffffffffffffff16815260200190815260200160002060008282546120a2919061405c565b92505081905550816067600083815260200190815260200160002060006101000a81548173ffffffffffffffffffffffffffffffffffffffff021916908373ffffffffffffffffffffffffffffffffffffffff160217905550808273ffffffffffffffffffffffffffffffffffffffff168473ffffffffffffffffffffffffffffffffffffffff167fddf252ad1be2c89b69c2b068fc378daa952ba7f163c4a11628f55a4df523b3ef60405160405180910390a4505050565b6001816000016000828254019250508190555050565b600081600001549050919050565b600073ffffffffffffffffffffffffffffffffffffffff168273ffffffffffffffffffffffffffffffffffffffff1614156121ef576040517f08c379a00000000000000000000000000000000000000000000000000000000081526004016121e690613dcb565b60405180910390fd5b6121f881611cf4565b15612238576040517f08c379a000000000000000000000000000000000000000000000000000000000815260040161222f90613cab565b60405180910390fd5b61224460008383612989565b6001606860008473ffffffffffffffffffffffffffffffffffffffff1673ffffffffffffffffffffffffffffffffffffffff1681526020019081526020016000206000828254612294919061405c565b92505081905550816067600083815260200190815260200160002060006101000a81548173ffffffffffffffffffffffffffffffffffffffff021916908373ffffffffffffffffffffffffffffffffffffffff160217905550808273ffffffffffffffffffffffffffffffffffffffff16600073ffffffffffffffffffffffffffffffffffffffff167fddf252ad1be2c89b69c2b068fc378daa952ba7f163c4a11628f55a4df523b3ef60405160405180910390a45050565b61235682611cf4565b61235f57600080fd5b612367611d60565b73ffffffffffffffffffffffffffffffffffffffff1661238683610ca2565b73ffffffffffffffffffffffffffffffffffffffff16146123a657600080fd5b8060fc6000848152602001908152602001600020600082015181600001556020820151816001015560408201518160020190805190602001906123ea929190613087565b506060820151816003019080519060200190612407929190613087565b5060808201518160040160006101000a81548160ff0219169083151502179055509050505050565b600060019054906101000a900460ff1680612455575060008054906101000a900460ff16155b612494576040517f08c379a000000000000000000000000000000000000000000000000000000000815260040161248b90613d8b565b60405180910390fd5b60008060019054906101000a900460ff1615905080156124e4576001600060016101000a81548160ff02191690831515021790555060016000806101000a81548160ff0219169083151502179055505b6124ec61298e565b6124f4612a67565b80156125155760008060016101000a81548160ff0219169083151502179055505b50565b600060019054906101000a900460ff168061253e575060008054906101000a900460ff16155b61257d576040517f08c379a000000000000000000000000000000000000000000000000000000000815260040161257490613d8b565b60405180910390fd5b60008060019054906101000a900460ff1615905080156125cd576001600060016101000a81548160ff02191690831515021790555060016000806101000a81548160ff0219169083151502179055505b6125d5612be9565b80156125f65760008060016101000a81548160ff0219169083151502179055505b50565b600060019054906101000a900460ff168061261f575060008054906101000a900460ff16155b61265e576040517f08c379a000000000000000000000000000000000000000000000000000000000815260040161265590613d8b565b60405180910390fd5b60008060019054906101000a900460ff1615905080156126ae576001600060016101000a81548160ff02191690831515021790555060016000806101000a81548160ff0219169083151502179055505b6126b661298e565b6126be612cca565b6126c88383612da3565b80156126e95760008060016101000a81548160ff0219169083151502179055505b505050565b6126f9848484611eff565b61270584848484612eac565b612744576040517f08c379a000000000000000000000000000000000000000000000000000000000815260040161273b90613c6b565b60405180910390fd5b50505050565b606060fd8054612759906141cd565b80601f0160208091040260200160405190810160405280929190818152602001828054612785906141cd565b80156127d25780601f106127a7576101008083540402835291602001916127d2565b820191906000526020600020905b8154815290600101906020018083116127b557829003601f168201915b5050505050905090565b60606000821415612824576040518060400160405280600181526020017f30000000000000000000000000000000000000000000000000000000000000008152509050612984565b600082905060005b6000821461285657808061283f90614230565b915050600a8261284f91906140b2565b915061282c565b60008167ffffffffffffffff811115612898577f4e487b7100000000000000000000000000000000000000000000000000000000600052604160045260246000fd5b6040519080825280601f01601f1916602001820160405280156128ca5781602001600182028036833780820191505090505b5090505b6000851461297d576001826128e391906140e3565b9150600a856128f29190614279565b60306128fe919061405c565b60f81b81838151811061293a577f4e487b7100000000000000000000000000000000000000000000000000000000600052603260045260246000fd5b60200101907effffffffffffffffffffffffffffffffffffffffffffffffffffffffffffff1916908160001a905350600a8561297691906140b2565b94506128ce565b8093505050505b919050565b505050565b600060019054906101000a900460ff16806129b4575060008054906101000a900460ff16155b6129f3576040517f08c379a00000000000000000000000000000000000000000000000000000000081526004016129ea90613d8b565b60405180910390fd5b60008060019054906101000a900460ff161590508015612a43576001600060016101000a81548160ff02191690831515021790555060016000806101000a81548160ff0219169083151502179055505b8015612a645760008060016101000a81548160ff0219169083151502179055505b50565b600060019054906101000a900460ff1680612a8d575060008054906101000a900460ff16155b612acc576040517f08c379a0000000000000000000000000000000000000000000000000000000008152600401612ac390613d8b565b60405180910390fd5b60008060019054906101000a900460ff161590508015612b1c576001600060016101000a81548160ff02191690831515021790555060016000806101000a81548160ff0219169083151502179055505b6000612b26611d60565b905080609760006101000a81548173ffffffffffffffffffffffffffffffffffffffff021916908373ffffffffffffffffffffffffffffffffffffffff1602179055508073ffffffffffffffffffffffffffffffffffffffff16600073ffffffffffffffffffffffffffffffffffffffff167f8be0079c531659141344cd1fd0a4f28419497f9722a3daafe3b4186f6b6457e060405160405180910390a3508015612be65760008060016101000a81548160ff0219169083151502179055505b50565b600060019054906101000a900460ff1680612c0f575060008054906101000a900460ff16155b612c4e576040517f08c379a0000000000000000000000000000000000000000000000000000000008152600401612c4590613d8b565b60405180910390fd5b60008060019054906101000a900460ff161590508015612c9e576001600060016101000a81548160ff02191690831515021790555060016000806101000a81548160ff0219169083151502179055505b600160c9819055508015612cc75760008060016101000a81548160ff0219169083151502179055505b50565b600060019054906101000a900460ff1680612cf0575060008054906101000a900460ff16155b612d2f576040517f08c379a0000000000000000000000000000000000000000000000000000000008152600401612d2690613d8b565b60405180910390fd5b60008060019054906101000a900460ff161590508015612d7f576001600060016101000a81548160ff02191690831515021790555060016000806101000a81548160ff0219169083151502179055505b8015612da05760008060016101000a81548160ff0219169083151502179055505b50565b600060019054906101000a900460ff1680612dc9575060008054906101000a900460ff16155b612e08576040517f08c379a0000000000000000000000000000000000000000000000000000000008152600401612dff90613d8b565b60405180910390fd5b60008060019054906101000a900460ff161590508015612e58576001600060016101000a81548160ff02191690831515021790555060016000806101000a81548160ff0219169083151502179055505b8260659080519060200190612e6e929190613087565b508160669080519060200190612e85929190613087565b508015612ea75760008060016101000a81548160ff0219169083151502179055505b505050565b6000612ecd8473ffffffffffffffffffffffffffffffffffffffff16613043565b15613036578373ffffffffffffffffffffffffffffffffffffffff1663150b7a02612ef6611d60565b8786866040518563ffffffff1660e01b8152600401612f189493929190613bc0565b602060405180830381600087803b158015612f3257600080fd5b505af1925050508015612f6357506040513d601f19601f82011682018060405250810190612f6091906134da565b60015b612fe6573d8060008114612f93576040519150601f19603f3d011682016040523d82523d6000602084013e612f98565b606091505b50600081511415612fde576040517f08c379a0000000000000000000000000000000000000000000000000000000008152600401612fd590613c6b565b60405180910390fd5b805181602001fd5b63150b7a0260e01b7bffffffffffffffffffffffffffffffffffffffffffffffffffffffff1916817bffffffffffffffffffffffffffffffffffffffffffffffffffffffff19161491505061303b565b600190505b949350505050565b600080823b905060008111915050919050565b6040518060a00160405280600081526020016000815260200160608152602001606081526020016000151581525090565b828054613093906141cd565b90600052602060002090601f0160209004810192826130b557600085556130fc565b82601f106130ce57805160ff19168380011785556130fc565b828001600101855582156130fc579182015b828111156130fb5782518255916020019190600101906130e0565b5b509050613109919061310d565b5090565b5b8082111561312657600081600090555060010161310e565b5090565b600061313d61313884613f6d565b613f48565b90508281526020810184848401111561315557600080fd5b61316084828561418b565b509392505050565b600061317b61317684613f9e565b613f48565b90508281526020810184848401111561319357600080fd5b61319e84828561418b565b509392505050565b6000813590506131b581614934565b92915050565b6000813590506131ca8161494b565b92915050565b6000813590506131df81614962565b92915050565b6000815190506131f481614962565b92915050565b600082601f83011261320b57600080fd5b813561321b84826020860161312a565b91505092915050565b600082601f83011261323557600080fd5b8135613245848260208601613168565b91505092915050565b60008135905061325d81614979565b92915050565b60006020828403121561327557600080fd5b6000613283848285016131a6565b91505092915050565b6000806040838503121561329f57600080fd5b60006132ad858286016131a6565b92505060206132be858286016131a6565b9150509250929050565b6000806000606084860312156132dd57600080fd5b60006132eb868287016131a6565b93505060206132fc868287016131a6565b925050604061330d8682870161324e565b9150509250925092565b6000806000806080858703121561332d57600080fd5b600061333b878288016131a6565b945050602061334c878288016131a6565b935050604061335d8782880161324e565b925050606085013567ffffffffffffffff81111561337a57600080fd5b613386878288016131fa565b91505092959194509250565b600080604083850312156133a557600080fd5b60006133b3858286016131a6565b92505060206133c4858286016131bb565b9150509250929050565b600080600080600060a086880312156133e657600080fd5b60006133f4888289016131a6565b955050602086013567ffffffffffffffff81111561341157600080fd5b61341d88828901613224565b945050604086013567ffffffffffffffff81111561343a57600080fd5b61344688828901613224565b93505060606134578882890161324e565b9250506080613468888289016131bb565b9150509295509295909350565b6000806040838503121561348857600080fd5b6000613496858286016131a6565b92505060206134a78582860161324e565b9150509250929050565b6000602082840312156134c357600080fd5b60006134d1848285016131d0565b91505092915050565b6000602082840312156134ec57600080fd5b60006134fa848285016131e5565b91505092915050565b60006020828403121561351557600080fd5b600082013567ffffffffffffffff81111561352f57600080fd5b61353b84828501613224565b91505092915050565b60006020828403121561355657600080fd5b60006135648482850161324e565b91505092915050565b60008060006060848603121561358257600080fd5b60006135908682870161324e565b93505060206135a1868287016131bb565b92505060406135b28682870161324e565b9150509250925092565b600080604083850312156135cf57600080fd5b60006135dd8582860161324e565b92505060206135ee8582860161324e565b9150509250929050565b60006136048383613a69565b905092915050565b61361581614117565b82525050565b600061362682613fdf565b613630818561400d565b93508360208202850161364285613fcf565b8060005b8581101561367e578484038952815161365f85826135f8565b945061366a83614000565b925060208a01995050600181019050613646565b50829750879550505050505092915050565b61369981614129565b82525050565b6136a881614129565b82525050565b60006136b982613fea565b6136c3818561401e565b93506136d381856020860161419a565b6136dc81614366565b840191505092915050565b60006136f282613ff5565b6136fc818561402f565b935061370c81856020860161419a565b61371581614366565b840191505092915050565b600061372b82613ff5565b6137358185614040565b935061374581856020860161419a565b61374e81614366565b840191505092915050565b600061376482613ff5565b61376e8185614051565b935061377e81856020860161419a565b80840191505092915050565b6000613797603283614040565b91506137a282614377565b604082019050919050565b60006137ba602683614040565b91506137c5826143c6565b604082019050919050565b60006137dd601c83614040565b91506137e882614415565b602082019050919050565b6000613800602483614040565b915061380b8261443e565b604082019050919050565b6000613823601983614040565b915061382e8261448d565b602082019050919050565b6000613846602c83614040565b9150613851826144b6565b604082019050919050565b6000613869603883614040565b915061387482614505565b604082019050919050565b600061388c602a83614040565b915061389782614554565b604082019050919050565b60006138af602983614040565b91506138ba826145a3565b604082019050919050565b60006138d2602e83614040565b91506138dd826145f2565b604082019050919050565b60006138f5603183614040565b915061390082614641565b604082019050919050565b6000613918602083614040565b915061392382614690565b602082019050919050565b600061393b602c83614040565b9150613946826146b9565b604082019050919050565b600061395e602083614040565b915061396982614708565b602082019050919050565b6000613981602e83614040565b915061398c82614731565b604082019050919050565b60006139a4602983614040565b91506139af82614780565b604082019050919050565b60006139c7602f83614040565b91506139d2826147cf565b604082019050919050565b60006139ea602183614040565b91506139f58261481e565b604082019050919050565b6000613a0d603183614040565b9150613a188261486d565b604082019050919050565b6000613a30602d83614040565b9150613a3b826148bc565b604082019050919050565b6000613a53601f83614040565b9150613a5e8261490b565b602082019050919050565b600060a083016000830151613a816000860182613b63565b506020830151613a946020860182613b63565b5060408301518482036040860152613aac82826136e7565b91505060608301518482036060860152613ac682826136e7565b9150506080830151613adb6080860182613690565b508091505092915050565b600060a083016000830151613afe6000860182613b63565b506020830151613b116020860182613b63565b5060408301518482036040860152613b2982826136e7565b91505060608301518482036060860152613b4382826136e7565b9150506080830151613b586080860182613690565b508091505092915050565b613b6c81614181565b82525050565b613b7b81614181565b82525050565b6000613b8d8285613759565b9150613b998284613759565b91508190509392505050565b6000602082019050613bba600083018461360c565b92915050565b6000608082019050613bd5600083018761360c565b613be2602083018661360c565b613bef6040830185613b72565b8181036060830152613c0181846136ae565b905095945050505050565b60006020820190508181036000830152613c26818461361b565b905092915050565b6000602082019050613c43600083018461369f565b92915050565b60006020820190508181036000830152613c638184613720565b905092915050565b60006020820190508181036000830152613c848161378a565b9050919050565b60006020820190508181036000830152613ca4816137ad565b9050919050565b60006020820190508181036000830152613cc4816137d0565b9050919050565b60006020820190508181036000830152613ce4816137f3565b9050919050565b60006020820190508181036000830152613d0481613816565b9050919050565b60006020820190508181036000830152613d2481613839565b9050919050565b60006020820190508181036000830152613d448161385c565b9050919050565b60006020820190508181036000830152613d648161387f565b9050919050565b60006020820190508181036000830152613d84816138a2565b9050919050565b60006020820190508181036000830152613da4816138c5565b9050919050565b60006020820190508181036000830152613dc4816138e8565b9050919050565b60006020820190508181036000830152613de48161390b565b9050919050565b60006020820190508181036000830152613e048161392e565b9050919050565b60006020820190508181036000830152613e2481613951565b9050919050565b60006020820190508181036000830152613e4481613974565b9050919050565b60006020820190508181036000830152613e6481613997565b9050919050565b60006020820190508181036000830152613e84816139ba565b9050919050565b60006020820190508181036000830152613ea4816139dd565b9050919050565b60006020820190508181036000830152613ec481613a00565b9050919050565b60006020820190508181036000830152613ee481613a23565b9050919050565b60006020820190508181036000830152613f0481613a46565b9050919050565b60006020820190508181036000830152613f258184613ae6565b905092915050565b6000602082019050613f426000830184613b72565b92915050565b6000613f52613f63565b9050613f5e82826141ff565b919050565b6000604051905090565b600067ffffffffffffffff821115613f8857613f87614337565b5b613f9182614366565b9050602081019050919050565b600067ffffffffffffffff821115613fb957613fb8614337565b5b613fc282614366565b9050602081019050919050565b6000819050602082019050919050565b600081519050919050565b600081519050919050565b600081519050919050565b6000602082019050919050565b600082825260208201905092915050565b600082825260208201905092915050565b600082825260208201905092915050565b600082825260208201905092915050565b600081905092915050565b600061406782614181565b915061407283614181565b9250827fffffffffffffffffffffffffffffffffffffffffffffffffffffffffffffffff038211156140a7576140a66142aa565b5b828201905092915050565b60006140bd82614181565b91506140c883614181565b9250826140d8576140d76142d9565b5b828204905092915050565b60006140ee82614181565b91506140f983614181565b92508282101561410c5761410b6142aa565b5b828203905092915050565b600061412282614161565b9050919050565b60008115159050919050565b60007fffffffff0000000000000000000000000000000000000000000000000000000082169050919050565b600073ffffffffffffffffffffffffffffffffffffffff82169050919050565b6000819050919050565b82818337600083830152505050565b60005b838110156141b857808201518184015260208101905061419d565b838111156141c7576000848401525b50505050565b600060028204905060018216806141e557607f821691505b602082108114156141f9576141f8614308565b5b50919050565b61420882614366565b810181811067ffffffffffffffff8211171561422757614226614337565b5b80604052505050565b600061423b82614181565b91507fffffffffffffffffffffffffffffffffffffffffffffffffffffffffffffffff82141561426e5761426d6142aa565b5b600182019050919050565b600061428482614181565b915061428f83614181565b92508261429f5761429e6142d9565b5b828206905092915050565b7f4e487b7100000000000000000000000000000000000000000000000000000000600052601160045260246000fd5b7f4e487b7100000000000000000000000000000000000000000000000000000000600052601260045260246000fd5b7f4e487b7100000000000000000000000000000000000000000000000000000000600052602260045260246000fd5b7f4e487b7100000000000000000000000000000000000000000000000000000000600052604160045260246000fd5b6000601f19601f8301169050919050565b7f4552433732313a207472616e7366657220746f206e6f6e20455243373231526560008201527f63656976657220696d706c656d656e7465720000000000000000000000000000602082015250565b7f4f776e61626c653a206e6577206f776e657220697320746865207a65726f206160008201527f6464726573730000000000000000000000000000000000000000000000000000602082015250565b7f4552433732313a20746f6b656e20616c7265616479206d696e74656400000000600082015250565b7f4552433732313a207472616e7366657220746f20746865207a65726f2061646460008201527f7265737300000000000000000000000000000000000000000000000000000000602082015250565b7f4552433732313a20617070726f766520746f2063616c6c657200000000000000600082015250565b7f4552433732313a206f70657261746f7220717565727920666f72206e6f6e657860008201527f697374656e7420746f6b656e0000000000000000000000000000000000000000602082015250565b7f4552433732313a20617070726f76652063616c6c6572206973206e6f74206f7760008201527f6e6572206e6f7220617070726f76656420666f7220616c6c0000000000000000602082015250565b7f4552433732313a2062616c616e636520717565727920666f7220746865207a6560008201527f726f206164647265737300000000000000000000000000000000000000000000602082015250565b7f4552433732313a206f776e657220717565727920666f72206e6f6e657869737460008201527f656e7420746f6b656e0000000000000000000000000000000000000000000000602082015250565b7f496e697469616c697a61626c653a20636f6e747261637420697320616c72656160008201527f647920696e697469616c697a6564000000000000000000000000000000000000602082015250565b7f4552433732314d657461646174613a20507269636520717565727920666f722060008201527f6e6f6e6578697374656e7420746f6b656e000000000000000000000000000000602082015250565b7f4552433732313a206d696e7420746f20746865207a65726f2061646472657373600082015250565b7f4552433732313a20617070726f76656420717565727920666f72206e6f6e657860008201527f697374656e7420746f6b656e0000000000000000000000000000000000000000602082015250565b7f4f776e61626c653a2063616c6c6572206973206e6f7420746865206f776e6572600082015250565b7f4552433732314d657461646174613a20507269636520736574206f66206e6f6e60008201527f6578697374656e7420746f6b656e000000000000000000000000000000000000602082015250565b7f4552433732313a207472616e73666572206f6620746f6b656e2074686174206960008201527f73206e6f74206f776e0000000000000000000000000000000000000000000000602082015250565b7f4552433732314d657461646174613a2055524920717565727920666f72206e6f60008201527f6e6578697374656e7420746f6b656e0000000000000000000000000000000000602082015250565b7f4552433732313a20617070726f76616c20746f2063757272656e74206f776e6560008201527f7200000000000000000000000000000000000000000000000000000000000000602082015250565b7f4552433732313a207472616e736665722063616c6c6572206973206e6f74206f60008201527f776e6572206e6f7220617070726f766564000000000000000000000000000000602082015250565b7f4552433732314d657461646174613a2053616c6520736574206f66206e6f6e6560008201527f78697374656e7420746f6b656e00000000000000000000000000000000000000602082015250565b7f5265656e7472616e637947756172643a207265656e7472616e742063616c6c00600082015250565b61493d81614117565b811461494857600080fd5b50565b61495481614129565b811461495f57600080fd5b50565b61496b81614135565b811461497657600080fd5b50565b61498281614181565b811461498d57600080fd5b5056fe68747470733a2f2f726832357132347476662e657865637574652d6170692e65752d776573742d322e616d617a6f6e6177732e636f6d2f6465762f746f6b656e3f69643da2646970667358221220d41a4c2f4af633ad3a70ffa4f144a55342fa0ede6ae2122729f254ab4e2a206a64736f6c63430008030033",
  "immutableReferences": {},
  "source": "// SPDX-License-Identifier: MIT\npragma solidity >=0.4.22 <0.9.0;\npragma experimental ABIEncoderV2;\n\nimport \"../node_modules/@openzeppelin/contracts-upgradeable/token/ERC721/ERC721Upgradeable.sol\";\nimport \"../node_modules/@openzeppelin/contracts-upgradeable/access/OwnableUpgradeable.sol\";\nimport \"../node_modules/@openzeppelin/contracts-upgradeable/security/ReentrancyGuardUpgradeable.sol\";\nimport \"../node_modules/@openzeppelin/contracts-upgradeable/utils/CountersUpgradeable.sol\";\n\ncontract NFTT is ERC721Upgradeable, OwnableUpgradeable, ReentrancyGuardUpgradeable {\n    using CountersUpgradeable for CountersUpgradeable.Counter;\n    CountersUpgradeable.Counter private _tokenIds;\n\n    mapping (uint256 => TokenMeta) private _tokenMeta;\n\n    string baseURI;\n\n    struct TokenMeta {\n        uint256 id;\n        uint256 price;\n        string name;\n        string uri;\n        bool sale;\n    }\n\n    function initialize() public initializer {\n        OwnableUpgradeable.__Ownable_init();\n        ReentrancyGuardUpgradeable.__ReentrancyGuard_init();\n        ERC721Upgradeable.__ERC721_init(\"NFTT\", \"NFTT\");\n        setBaseURI(\"https://rh25q24tvf.execute-api.eu-west-2.amazonaws.com/dev/token?id=\");\n    }\n\n    /**\n     * @dev Base URI for computing {tokenURI}. Empty by default, can be overriden\n     * in child contracts.\n     */\n    function _baseURI() internal view override virtual returns (string memory) {\n        return baseURI;\n    }\n\n    function setBaseURI(string memory _newBaseURI) public virtual onlyOwner {\n        baseURI = _newBaseURI;\n    }\n\n    function getAllOnSale () public view virtual returns( TokenMeta[] memory ) {\n        TokenMeta[] memory tokensOnSale = new TokenMeta[](_tokenIds.current());\n        uint256 counter = 0;\n\n        for(uint i = 1; i < _tokenIds.current() + 1; i++) {\n            if(_tokenMeta[i].sale == true) {\n                tokensOnSale[counter] = _tokenMeta[i];\n                counter++;\n            }\n        }\n        return tokensOnSale;\n    }\n\n    /**\n     * @dev sets maps token to its price\n     * @param _tokenId uint256 token ID (token number)\n     * @param _sale bool token on sale\n     * @param _price unit256 token price\n     * \n     * Requirements: \n     * `tokenId` must exist\n     * `price` must be more than 0\n     * `owner` must the msg.owner\n     */\n    function setTokenSale(uint256 _tokenId, bool _sale, uint256 _price) public {\n        require(_exists(_tokenId), \"ERC721Metadata: Sale set of nonexistent token\");\n        require(_price > 0);\n        require(ownerOf(_tokenId) == _msgSender());\n\n        _tokenMeta[_tokenId].sale = _sale;\n        setTokenPrice(_tokenId, _price);\n    }\n\n    /**\n     * @dev sets maps token to its price\n     * @param _tokenId uint256 token ID (token number)\n     * @param _price uint256 token price\n     * \n     * Requirements: \n     * `tokenId` must exist\n     * `owner` must the msg.owner\n     */\n    function setTokenPrice(uint256 _tokenId, uint256 _price) public {\n        require(_exists(_tokenId), \"ERC721Metadata: Price set of nonexistent token\");\n        require(ownerOf(_tokenId) == _msgSender());\n        _tokenMeta[_tokenId].price = _price;\n    }\n\n    function tokenPrice(uint256 tokenId) public view virtual returns (uint256) {\n        require(_exists(tokenId), \"ERC721Metadata: Price query for nonexistent token\");\n        return _tokenMeta[tokenId].price;\n    }\n\n    /**\n     * @dev sets token meta\n     * @param _tokenId uint256 token ID (token number)\n     * @param _meta TokenMeta \n     * \n     * Requirements: \n     * `tokenId` must exist\n     * `owner` must the msg.owner\n     */\n    function _setTokenMeta(uint256 _tokenId, TokenMeta memory _meta) private {\n        require(_exists(_tokenId));\n        require(ownerOf(_tokenId) == _msgSender());\n        _tokenMeta[_tokenId] = _meta;\n    }\n\n    function tokenMeta(uint256 _tokenId) public view returns (TokenMeta memory) {\n        require(_exists(_tokenId));\n        return _tokenMeta[_tokenId];\n    }\n\n    /**\n     * @dev purchase _tokenId\n     * @param _tokenId uint256 token ID (token number)\n     */\n    function purchaseToken(uint256 _tokenId) public payable nonReentrant {\n        require(msg.sender != address(0) && msg.sender != ownerOf(_tokenId));\n        require(msg.value >= _tokenMeta[_tokenId].price);\n        address tokenSeller = ownerOf(_tokenId);\n\n        payable(tokenSeller).transfer(msg.value);\n\n        setApprovalForAll(tokenSeller, true);\n        _transfer(tokenSeller, msg.sender, _tokenId);\n        _tokenMeta[_tokenId].sale = false;\n    }\n\n    function mintCollectable(\n        address _owner, \n        string memory _tokenURI, \n        string memory _name, \n        uint256 _price, \n        bool _sale\n    )\n        public\n        onlyOwner\n        returns (uint256)\n    {\n        require(_price > 0);\n\n        _tokenIds.increment();\n\n        uint256 newItemId = _tokenIds.current();\n        _mint(_owner, newItemId);\n\n        TokenMeta memory meta = TokenMeta(newItemId, _price, _name, _tokenURI, _sale);\n        _setTokenMeta(newItemId, meta);\n\n        return newItemId;\n    }\n}",
  "sourcePath": "/Users/paganinisilvio/Desktop/Workspace/LVR/contracts/contracts/NFTT.sol",
  "compiler": {
    "name": "solc",
    "version": "0.8.3+commit.8d00100c.Emscripten.clang"
  },
  "schemaVersion": "3.3.4",
  "updatedAt": "2021-04-09T12:23:51.538Z",
  "networkType": "ethereum",
  "devdoc": {
    "kind": "dev",
    "methods": {
      "approve(address,uint256)": {
        "details": "See {IERC721-approve}."
      },
      "balanceOf(address)": {
        "details": "See {IERC721-balanceOf}."
      },
      "getApproved(uint256)": {
        "details": "See {IERC721-getApproved}."
      },
      "isApprovedForAll(address,address)": {
        "details": "See {IERC721-isApprovedForAll}."
      },
      "name()": {
        "details": "See {IERC721Metadata-name}."
      },
      "owner()": {
        "details": "Returns the address of the current owner."
      },
      "ownerOf(uint256)": {
        "details": "See {IERC721-ownerOf}."
      },
      "purchaseToken(uint256)": {
        "details": "purchase _tokenId",
        "params": {
          "_tokenId": "uint256 token ID (token number)"
        }
      },
      "renounceOwnership()": {
        "details": "Leaves the contract without owner. It will not be possible to call `onlyOwner` functions anymore. Can only be called by the current owner. NOTE: Renouncing ownership will leave the contract without an owner, thereby removing any functionality that is only available to the owner."
      },
      "safeTransferFrom(address,address,uint256)": {
        "details": "See {IERC721-safeTransferFrom}."
      },
      "safeTransferFrom(address,address,uint256,bytes)": {
        "details": "See {IERC721-safeTransferFrom}."
      },
      "setApprovalForAll(address,bool)": {
        "details": "See {IERC721-setApprovalForAll}."
      },
      "setTokenPrice(uint256,uint256)": {
        "details": "sets maps token to its price",
        "params": {
          "_price": "uint256 token price  Requirements:  `tokenId` must exist `owner` must the msg.owner",
          "_tokenId": "uint256 token ID (token number)"
        }
      },
      "setTokenSale(uint256,bool,uint256)": {
        "details": "sets maps token to its price",
        "params": {
          "_price": "unit256 token price  Requirements:  `tokenId` must exist `price` must be more than 0 `owner` must the msg.owner",
          "_sale": "bool token on sale",
          "_tokenId": "uint256 token ID (token number)"
        }
      },
      "supportsInterface(bytes4)": {
        "details": "See {IERC165-supportsInterface}."
      },
      "symbol()": {
        "details": "See {IERC721Metadata-symbol}."
      },
      "tokenURI(uint256)": {
        "details": "See {IERC721Metadata-tokenURI}."
      },
      "transferFrom(address,address,uint256)": {
        "details": "See {IERC721-transferFrom}."
      },
      "transferOwnership(address)": {
        "details": "Transfers ownership of the contract to a new account (`newOwner`). Can only be called by the current owner."
      }
    },
    "version": 1
  },
  "userdoc": {
    "kind": "user",
    "methods": {},
    "version": 1
  }
}